:020000040800F2
:100000000028002035120008C5110008CB11000897
:10001000D1110008D7110008DD1100080000000010
:10002000000000000000000000000000E3110008D4
:10003000EF11000800000000FB1100080712000883
:100040007D1200087D1200087D1200087D12000854
:100050007D1200087D1200087D1200087D12000844
:100060007D1200087D1200087D1200087D12000834
:100070007D1200087D1200087D1200087D12000824
:100080007D1200087D1200087D1200087D12000814
:100090007D1200087D1200087D1200087D12000804
:1000A0007D1200087D1200087D1200087D120008F4
:1000B000151200087D120008000000007D120008E3
:1000C0007D12000800000000000000007D12000802
:1000D000000000007D1200087D12000800000000F2
:1000E0007D1200087D1200087D120008000000004B
:1000F0000000000000000000000000000000000000
:0C01000000000000000000005FF808F1A3
:10010C0010B5054C237833B9044B13B10448AFF345
:10011C0000800123237010BD24000020000000008B
:10012C008028000808B5034B1BB103490348AFF303
:10013C00008008BD00000000280000208028000876
:10014C0080B500AF01220121114801F07DFB012295
:10015C0002210F4801F078FB012204210C4801F028
:10016C0073FB012208210A4801F06EFB01221021C9
:10017C00074801F069FB01222021054801F064FBCE
:10018C0001224021024801F05FFB00BF80BD00BF8F
:10019C00000C014080B582B000AF78607B68092B01
:1001AC0000F2808101A252F823F000BFE1010008A7
:1001BC002902000871020008B902000801030008B6
:1001CC004903000891030008D90300082104000822
:1001DC006904000800220121B64801F035FB002219
:1001EC000221B44801F030FB00220421B14801F097
:1001FC002BFB00220821AF4801F026FB0022102126
:10020C00AC4801F021FB00222021AA4801F01CFB84
:10021C0001224021A74801F017FB46E101220121F0
:10022C00A44801F011FB00220221A24801F00CFBB2
:10023C00002204219F4801F007FB012208219D4860
:10024C0001F002FB012210219A4801F0FDFA012273
:10025C002021984801F0F8FA01224021954801F03C
:10026C00F3FA22E100220121924801F0EDFA00227A
:10027C000221904801F0E8FA012204218D4801F096
:10028C00E3FA002208218B4801F0DEFA002210214B
:10029C00884801F0D9FA01222021864801F0D4FACD
:1002AC0000224021834801F0CFFAFEE00022012118
:1002BC00804801F0C9FA002202217E4801F0C4FAFC
:1002CC00002204217B4801F0BFFA00220821794862
:1002DC0001F0BAFA01221021764801F0B5FA012298
:1002EC002021744801F0B0FA00224021714801F03D
:1002FC00ABFADAE0012201216E4801F0A5FA0022E6
:10030C0002216C4801F0A0FA00220421694801F096
:10031C009BFA01220821674801F096FA012210216C
:10032C00644801F091FA00222021624801F08CFA15
:10033C00002240215F4801F087FAB6E0002201213B
:10034C005C4801F081FA012202215A4801F07CFA42
:10035C0000220421574801F077FA00220821554861
:10036C0001F072FA01221021524801F06DFA0022BC
:10037C002021504801F068FA002240214D4801F03C
:10038C0063FA92E0002201214A4801F05DFA012251
:10039C000221484801F058FA00220421454801F096
:1003AC0053FA00220821434801F04EFA0022102192
:1003BC00404801F049FA002220213E4801F044FA5D
:1003CC00002240213B4801F03FFA6EE0002201215F
:1003DC00384801F039FA00220221364801F034FA8B
:1003EC0000220421334801F02FFA01220821314860
:1003FC0001F02AFA012210212E4801F025FA0122DF
:10040C0020212C4801F020FA01224021294801F03A
:10041C001BFA4AE000220121264801F015FA0022BD
:10042C000221244801F010FA00220421214801F095
:10043C000BFA002208211F4801F006FA00221021B5
:10044C001C4801F001FA002220211A4801F0FCF9A5
:10045C0000224021174801F0F7F926E00022012183
:10046C00144801F0F1F900220221124801F0ECF9D4
:10047C00002204210F4801F0E7F9002208210D4861
:10048C0001F0E2F9012210210A4801F0DDF9002205
:10049C002021084801F0D8F900224021054801F03C
:1004AC00D3F902E0FFF74CFE00BF00BF0837BD4692
:1004BC0080BD00BF000C014080B582B000AF7860F9
:1004CC007B68032B66D801A252F823F0E9040008DC
:1004DC001705000845050008730500080022402197
:1004EC003A4801F0B1F901228021384801F0ACF909
:1004FC0001224FF48071354801F0A6F901224FF426
:10050C000071324801F0A0F95BE0012240212F4834
:10051C0001F09AF9002280212C4801F095F9012272
:10052C004FF48071294801F08FF901224FF40071CA
:10053C00264801F089F944E001224021234801F0CA
:10054C0083F901228021214801F07EF900224FF429
:10055C0080711E4801F078F901224FF400711B489C
:10056C0001F072F92DE001224021184801F06CF9DC
:10057C0001228021154801F067F901224FF48071A6
:10058C00124801F061F900224FF400710F4801F09C
:10059C005BF916E0012240210C4801F055F90122CB
:1005AC0080210A4801F050F901224FF4807107486C
:1005BC0001F04AF901224FF40071044801F044F9AA
:1005CC0000BF00BF0837BD4680BD00BF000801401A
:1005DC0080B582B000AF78607B68032B2ED801A267
:1005EC0052F823F00106000813060008250600083F
:1005FC0037060008174B1B681846FFF7CBFD002089
:10060C00FFF75AFF21E0134B5B681846FFF7C2FD5A
:10061C000120FFF751FF18E00E4B9B681846FFF7BF
:10062C00B9FD0220FFF748FF0FE00A4BDB681846C4
:10063C00FFF7B0FD0320FFF73FFF06E0FFF780FD5B
:10064C004FF0FF30FFF738FF00BF00BF0837BD4643
:10065C0080BD00BF0000002080B483B000AF786084
:10066C0039607B68184A82FB03129210DB17D31A8D
:10067C00164A13607968144B83FB01239A10CB172D
:10068C00D21A13469B0013445B00CA1A0F4B5A60D4
:10069C003B680D4A82FB03129210DB17D31A0B4AEC
:1006AC0093603968084B83FB01239A10CB17D21A3D
:1006BC0013469B0013445B00CA1A044BDA6000BF5C
:1006CC000C37BD4680BC704767666666000000202C
:1006DC00B0B590B000AF78600B46FB70D64B07F10D
:1006EC001C041D460FCD0FC495E80F0084E80F00C5
:1006FC00D24B07F10C040FCB84E80F00012204212C
:10070C00CF4801F0A1F801220821CD4801F09CF856
:10071C0001224FF48061CA4801F096F801224FF48F
:10072C000061C74801F090F801224FF48051C44891
:10073C0001F08AF801224FF40051C14801F084F80D
:10074C0001224FF48041BE4801F07EF801224FF4A3
:10075C000041BB4801F078F87B68072B00F2A581BB
:10076C0001A252F823F000BF95070008F707000814
:10077C0059080008BB0800081D0900087F0900087B
:10078C00E1090008550A000800224FF48071AD48B9
:10079C0001F05AF801224FF40071AA4801F054F804
:1007AC0001224FF48061A74801F04EF801224FF46A
:1007BC000061A44801F048F801224FF48051A1488F
:1007CC0001F042F801224FF400519E4801F03CF830
:1007DC0001224FF480419B4801F036F801224FF47E
:1007EC000041984801F030F85FE101224FF480712C
:1007FC00944801F029F800224FF40071914801F05F
:10080C0023F801224FF480618E4801F01DF801227B
:10081C004FF400618B4801F017F801224FF480511E
:10082C00884801F011F801224FF40051854801F07D
:10083C000BF801224FF48041824801F005F80122A7
:10084C004FF400417F4800F0FFFF2EE101224FF4EE
:10085C0080717C4800F0F8FF01224FF40071794858
:10086C0000F0F2FF00224FF48061764800F0ECFFBC
:10087C0001224FF40061734800F0E6FF01224FF4AF
:10088C008051704800F0E0FF01224FF400516D4898
:10089C0000F0DAFF01224FF480416A4800F0D4FFE7
:1008AC0001224FF40041674800F0CEFFFDE0012229
:1008BC004FF48071634800F0C7FF01224FF40071C0
:1008CC00604800F0C1FF01224FF480615D4800F0E8
:1008DC00BBFF00224FF400615A4800F0B5FF012223
:1008EC004FF48051574800F0AFFF01224FF40051F4
:1008FC00544800F0A9FF01224FF48041514800F008
:10090C00A3FF01224FF400414E4800F09DFFCCE0C4
:10091C0001224FF480714B4800F096FF01224FF4F6
:10092C000071484800F090FF01224FF48061454867
:10093C0000F08AFF01224FF40061424800F084FF6E
:10094C0000224FF480513F4800F07EFF01224FF40B
:10095C0000513C4800F078FF01224FF480413948A7
:10096C0000F072FF01224FF40041364800F06CFF9A
:10097C009BE001224FF48071324800F065FF0122A8
:10098C004FF400712F4800F05FFF01224FF480619B
:10099C002C4800F059FF01224FF40061294800F067
:1009AC0053FF01224FF48051264800F04DFF0022E6
:1009BC004FF40051234800F047FF01224FF48041CF
:1009CC00204800F041FF01224FF400411D4800F087
:1009DC003BFF6AE001224FF480711A4800F034FFAB
:1009EC0001224FF40071174800F02EFF01224FF442
:1009FC008061144800F028FF01224FF40061114877
:100A0C0000F022FF01224FF480510E4800F01CFF31
:100A1C0001224FF400510B4800F016FF00224FF456
:100A2C008041084800F010FF01224FF400410548B6
:100A3C0000F00AFF39E000BF98280008B828000829
:100A4C0000080140000C014001224FF480712B483A
:100A5C0000F0FAFE01224FF40071284800F0F4FE79
:100A6C0001224FF48061254800F0EEFE01224FF484
:100A7C000061224800F0E8FE01224FF480511F482B
:100A8C0000F0E2FE01224FF400511C4800F0DCFEA5
:100A9C0001224FF48041194800F0D6FE00224FF499
:100AAC000041164800F0D0FE00BF0023FB631CE0A1
:100ABC00FA78FB6B42FA03F303F00103002B11D01D
:100ACC00FB6B9B0007F14002134453F8240CFB6BA7
:100ADC005B0007F14002134433F8343C0022194602
:100AEC0000F0B2FEFB6B0133FB63FB6B072BDFDD0E
:100AFC0000BF00BF4037BD46B0BD00BF000C014079
:100B0C0080B582B000AF78607B68072B4AD801A211
:100B1C0052F823F0410B00084F0B00085D0B000846
:100B2C006B0B0008790B0008870B0008950B00086D
:100B3C00A30B00084D4B1B7819460020FFF7C8FD8E
:100B4C008FE04A4B5B7819460120FFF7C1FD88E026
:100B5C00464B9B7819460220FFF7BAFD81E0434BC8
:100B6C00DB7819460320FFF7B3FD7AE03F4B1B7986
:100B7C0019460420FFF7ACFD73E03C4B5B7919463A
:100B8C000520FFF7A5FD6CE0384B9B791946062034
:100B9C00FFF79EFD65E0354BDB7919460720FFF723
:100BAC0097FD5EE001224FF48071314800F04CFE5D
:100BBC0001224FF400712E4800F046FE01224FF442
:100BCC0080612B4800F040FE01224FF40061284860
:100BDC0000F03AFE01224FF48051254800F034FE1B
:100BEC0001224FF40051224800F02EFE01224FF456
:100BFC0080411F4800F028FE01224FF400411C48A0
:100C0C0000F022FE012204211A4800F01DFE0122F0
:100C1C000821184800F018FE01224FF48061154895
:100C2C0000F012FE01224FF40061124800F00CFE9D
:100C3C0001224FF480510F4800F006FE01224FF4C0
:100C4C0000510C4800F000FE01224FF4804109488D
:100C5C0000F0FAFD01224FF40041064800F0F4FDCB
:100C6C0000BF00BF0837BD4680BD00BF100000208C
:100C7C00000C01400008014080B483B000AF034673
:100C8C003960FB71FB799B08D9B2054A3B68134468
:100C9C000A461A7000BF0C37BD4680BC704700BFB7
:100CAC001000002080B500AFFFF74AFA4FF0FF307C
:100CBC00FFF702FC01221021064800F0C5FD0122BD
:100CCC002021044800F0C0FD4FF0FF30FFF718FF63
:100CDC0000BF80BD0008014090B58DB000AF00F0A2
:100CEC00C9FA00F0D5F800F05BF900F00DF9624894
:100CFC0001F008FA0023FB621723BB623B237B62E3
:100D0C0032233B624FF4FA71012000F0AFF94FF43B
:100D1C007A71022000F0AAF94FF47A71032000F0E6
:100D2C00A5F9FFF7BFFF4FF47A737B61534B3C1D62
:100D3C000FCB84E80F000023FB610FE0FB691A1D49
:100D4C00FB699B0007F130010B4453F82C3C19460E
:100D5C00104600F08BF9FB690133FB61FB69032B37
:100D6C00ECDD7D21082000F081F97D21092000F0C7
:100D7C007DF9434B5B6A012B0ED17D21092000F0DC
:100D8C0075F9FB6A5A1CFA623E4AD05CFB6A5A1C23
:100D9C00FA621946FFF770FF394B1B6A012B12D10F
:100DAC007D21082000F062F9374B1B68072B02DD10
:100DBC00354B00221A60344B1B685A1C32490A60AE
:100DCC001846FFF79DFE0023BB6112E0BB6904339C
:100DDC002B4A52F82330012B08D1BB6904337969B3
:100DEC00184600F043F9B869FFF7F2FBBB69013311
:100DFC00BB61BB69032BE9DD214B5B68012B08D17F
:100E0C004FF4FA71012000F031F920211F4800F055
:100E1C0033FD1B4B9B68012B08D14FF47A710220D8
:100E2C0000F024F91021194800F026FD144BDB6862
:100E3C00012B9ED14FF47A71032000F017F93B6A15
:100E4C0001333B623B6A3B2B04DD00233B627B6A34
:100E5C0001337B627B6A3B2B04DD00237B62BB6A24
:100E6C000133BB62BB6A172B01DD0023BB62796ABD
:100E7C00B86AFFF7F1FB7CE744000020C8280008A3
:100E8C00B4000020100000204000002000080140A9
:100E9C0080B590B000AF07F1180328220021184646
:100EAC0001F0E0FC3B1D00221A605A609A60DA6087
:100EBC001A610223BB610123BB621023FB62002376
:100ECC007B6307F11803184600F0F0FC0346002B77
:100EDC0001D000F0C5F80F237B600023BB6000231A
:100EEC00FB6000233B6100237B613B1D0021184606
:100EFC0000F05CFF0346002B01D000F0B1F800BFFE
:100F0C004037BD4680BD000080B586B000AF07F10C
:100F1C00080300221A605A609A60DA603B4600228D
:100F2C001A605A601D4B4FF080421A601B4B41F601
:100F3C003F725A60194B00229A60184B0922DA60F2
:100F4C00164B00221A61154B00229A61134801F0CE
:100F5C0089F80346002B01D000F082F84FF480533F
:100F6C00BB6007F1080319460C4801F007FA034669
:100F7C00002B01D000F074F800233B6000237B6051
:100F8C003B461946054801F0DFFB0346002B01D018
:100F9C0000F066F800BF1837BD4680BD4400002045
:100FAC0080B586B000AF07F1080300221A605A60C2
:100FBC009A60DA60224B9B69214A43F004039361E7
:100FCC001F4B9B6903F004037B607B681C4B9B6984
:100FDC001B4A43F008039361194B9B6903F0080308
:100FEC003B603B6800224FF6FC71164800F02CFC6D
:100FFC0000224FF67F71144800F026FC4FF6FC736C
:10100C00BB600123FB6000233B6102237B6107F182
:10101C00080319460B4800F09DFA4FF67F73BB602E
:10102C000123FB6000233B6102237B6107F1080372
:10103C001946054800F08EFA00BF1837BD4680BD32
:10104C000010024000080140000C014080B582B045
:10105C0000AF786000F02AF800BF0837BD4680BDAD
:10106C0080B400AF00BFBD4680BC704780B483B075
:10107C0000AF786039603B68094A82FB031292101A
:10108C00DB17D21A07497B6841F82320064A7B6894
:10109C00002142F8231000BF0C37BD4680BC7047BE
:1010AC00676666668C000020B400002080B483B0B4
:1010BC0000AF00237B601CE0124A7B6852F823309F
:1010CC00002B13DD0F4A7B6852F823305A1E0D4952
:1010DC007B6841F823200B4A7B6852F82330002BA5
:1010EC0004DC094A7B68012142F823107B68013338
:1010FC007B607B68092BDFDD00BF00BF0C37BD4672
:10110C0080BC70478C000020B400002080B485B0F7
:10111C0000AF154B9B69144A43F001039361124BCA
:10112C009B6903F00103BB60BB680F4BDB690E4A84
:10113C0043F08053D3610C4BDB6903F080537B602D
:10114C007B680A4B5B68FB60FB6823F0E063FB6029
:10115C00FB6843F08063FB60044AFB68536000BF8C
:10116C001437BD4680BC704700100240000001409F
:10117C0080B584B000AF78607B681B68B3F1804F9A
:10118C0013D10C4BDB690B4A43F00103D361094BC0
:10119C00DB6903F00103FB60FB68002200211C20CB
:1011AC0000F0A1F91C2000F0BAF900BF1037BD46C1
:1011BC0080BD00BF0010024080B400AFFEE780B4D9
:1011CC0000AFFEE780B400AFFEE780B400AFFEE7EF
:1011DC0080B400AFFEE780B400AF00BFBD4680BC5A
:1011EC00704780B400AF00BFBD4680BC704780B470
:1011FC0000AF00BFBD4680BC704780B500AF00F0AB
:10120C007FF800BF80BD000080B500AF024800F041
:10121C00C5FF00BF80BD00BF4400002080B400AFFC
:10122C0000BFBD4680BC7047FFF7F8FF0B480C4968
:10123C000C4A002302E0D458C4500433C4188C4226
:10124C00F9D3094A094C002301E013600432A2428D
:10125C00FBD301F0E3FAFFF73FFD704700000020DD
:10126C00240000200429000824000020E0000020B5
:10127C00FEE7000080B500AF084B1B68074A43F03F
:10128C0010031360032000F023F90F2000F008F87E
:10129C00FFF73CFF0023184680BD00BF0020024032
:1012AC0080B582B000AF7860124B1A68124B1B7875
:1012BC0019464FF47A73B3FBF1F3B2FBF3F3184610
:1012CC0000F03BF90346002B01D001230EE07B68B4
:1012DC000F2B0AD8002279684FF0FF3000F003F989
:1012EC00064A7B681360002300E001231846083788
:1012FC00BD4680BD18000020200000201C000020EE
:10130C0080B400AF054B1B781A46054B1B68134481
:10131C00034A136000BFBD4680BC7047200000200C
:10132C00DC00002080B400AF024B1B681846BD46A1
:10133C0080BC7047DC00002080B485B000AF7860C2
:10134C007B6803F00703FB600C4BDB68BB60BA687F
:10135C004FF6FF031340BB60FB681A02BB681343D4
:10136C0043F0BF6343F40033BB60044ABB68D360F3
:10137C0000BF1437BD4680BC704700BF00ED00E0D5
:10138C0080B400AF044BDB681B0A03F0070318465C
:10139C00BD4680BC704700BF00ED00E080B483B058
:1013AC0000AF0346FB7197F90730002B0BDBFB7981
:1013BC0003F01F02064997F907305B09012000FA78
:1013CC0002F241F8232000BF0C37BD4680BC7047A9
:1013DC0000E100E080B483B000AF03463960FB71DC
:1013EC0097F90730002B0ADB3B68DAB20C4997F906
:1013FC0007301201D2B20B4483F800230AE03B6899
:10140C00DAB20849FB7903F00F03043B1201D2B2A4
:10141C000B441A7600BF0C37BD4680BC704700BF2A
:10142C0000E100E000ED00E080B489B000AFF860AE
:10143C00B9607A60FB6803F00703FB61FB69C3F1D9
:10144C000703042B28BF0423BB61FB690433062B61
:10145C0002D9FB69033B00E000237B614FF0FF32B4
:10146C00BB6902FA03F3DA43BB681A407B699A4002
:10147C004FF0FF317B6901FA03F3D9437B680B40D2
:10148C00134318462437BD4680BC704780B582B0E4
:10149C0000AF78607B68013BB3F1807F01D30123FF
:1014AC000FE00A4A7B68013B53600F214FF0FF307D
:1014BC00FFF790FF054B00229A60044B07221A603D
:1014CC00002318460837BD4680BD00BF10E000E081
:1014DC0080B582B000AF78607868FFF72DFF00BF51
:1014EC000837BD4680BD80B586B000AF0346B960F5
:1014FC007A60FB7300237B61FFF742FF78617A68A7
:10150C00B9687869FFF790FF024697F90F301146DA
:10151C001846FFF75FFF00BF1837BD4680BD80B58A
:10152C0082B000AF0346FB7197F907301846FFF7FE
:10153C0035FF00BF0837BD4680BD80B582B000AF17
:10154C0078607868FFF7A2FF034618460837BD4657
:10155C0080BD000080B48BB000AF78603960002390
:10156C007B6200233B6248E101227B6A02FA03F3AF
:10157C00FB613B681B68FA691340BB61BA69FB6984
:10158C009A4240F037813B685B68A34A93425ED035
:10159C00A14A934275D8A14A934258D09F4A93428C
:1015AC006FD89F4A934252D09D4A934269D89D4A24
:1015BC0093424CD09B4A934263D89B4A934246D069
:1015CC00994A93425DD8122B2AD8122B59D801A2D2
:1015DC0052F823F05B160008351600084716000871
:1015EC00891600088F1600088F1600088F16000841
:1015FC008F1600088F1600088F1600088F1600082B
:10160C008F1600088F1600088F1600088F1600081A
:10161C008F1600088F1600083D160008511600089A
:10162C00824A934213D02CE03B68DB683B6229E092
:10163C003B68DB6804333B6224E03B68DB680833BF
:10164C003B621FE03B68DB680C333B621AE03B6893
:10165C009B68002B02D104233B6213E03B689B6820
:10166C00012B05D108233B627B68FA691A6109E0FA
:10167C0008233B627B68FA695A6103E000233B62F2
:10168C0000E000BFBB69FF2B01D87B6801E07B68E1
:10169C0004337B61BB69FF2B02D87B6A9B0002E0A1
:1016AC007B6A083B9B003B617B691A680F213B6995
:1016BC0001FA03F3DB431A40396A3B6901FA03F37D
:1016CC001A437B691A603B685B6803F08053002BFC
:1016DC0000F09080564B9B69554A43F0010393618F
:1016EC00534B9B6903F00103BB60BB68514A7B6A97
:1016FC009B08023352F82330FB607B6A03F0030330
:10170C009B000F2202FA03F3DB43FA681340FB60E1
:10171C007B68494A93420DD07B68484A934207D074
:10172C007B68474A934201D1022304E0032302E081
:10173C00012300E000237A6A02F003029200934036
:10174C00FA681343FB603B497B6A9B080233FA68D7
:10175C0041F823203B685B6803F48013002B06D010
:10176C00384B9A683749BB6913438B6006E0354B9D
:10177C009A68BB69DB43334913408B603B685B68F9
:10178C0003F40013002B06D02E4BDA682D49BB69ED
:10179C001343CB6006E02B4BDA68BB69DB4329496A
:1017AC001340CB603B685B6803F40033002B06D01E
:1017BC00244B5A682349BB6913434B6006E0214B09
:1017CC005A68BB69DB431F4913404B603B685B683D
:1017DC0003F48033002B06D01A4B1A681949BB69E5
:1017EC0013430B6006E0174B1A68BB69DB431549C2
:1017FC0013400B607B6A01337B623B681A687B6A1F
:10180C0022FA03F3002B7FF4AFAE00BF00BF2C37DE
:10181C00BD4680BC704700BF000032100000311084
:10182C000000221000002110000012100000111006
:10183C00001002400000014000080140000C014073
:10184C00001001400004014080B483B000AF786008
:10185C000B467B8013467B707B78002B03D07A88F9
:10186C007B681A6103E07B881A047B681A6100BFED
:10187C000C37BD4680BC704780B485B000AF786033
:10188C000B467B807B68DB68FB607A88FB681340C7
:10189C001A04FB68D9437B880B401A437B681A6196
:1018AC0000BF1437BD4680BC7047000080B586B0C1
:1018BC0000AF78607B68002B01D101236CE27B6860
:1018CC001B6803F00103002B00F08780924B5B68D0
:1018DC0003F00C03042B0CD08F4B5B6803F00C0350
:1018EC00082B12D18C4B5B6803F48033B3F5803F2B
:1018FC000BD1894B1B6803F40033002B6CD07B6835
:10190C005B68002B68D1012346E27B685B68B3F50A
:10191C00803F06D1804B1B687F4A43F480331360B1
:10192C002EE07B685B68002B0CD17B4B1B687A4AE2
:10193C0023F480331360784B1B68774A23F480239D
:10194C0013601DE07B685B68B3F5A02F0CD1724B64
:10195C001B68714A43F4802313606F4B1B686E4AFB
:10196C0043F4803313600BE06B4B1B686A4A23F41F
:10197C0080331360684B1B68674A23F48023136021
:10198C007B685B68002B13D0FFF7CCFC386108E058
:10199C00FFF7C8FC02463B69D31A642B01D9032319
:1019AC00FAE15D4B1B6803F40033002BF0D014E01C
:1019BC00FFF7B8FC386108E0FFF7B4FC02463B695E
:1019CC00D31A642B01D90323E6E1534B1B6803F4B0
:1019DC000033002BF0D100E000BF7B681B6803F0E4
:1019EC000203002B63D04C4B5B6803F00C03002B01
:1019FC000BD0494B5B6803F00C03082B1CD1464BF6
:101A0C005B6803F48033002B16D1434B1B6803F047
:101A1C000203002B05D07B681B69012B01D001232D
:101A2C00BAE13D4B1B6823F0F8027B685B69DB0075
:101A3C00394913430B603AE07B681B69002B20D0BB
:101A4C00364B01221A60FFF76DFC386108E0FFF796
:101A5C0069FC02463B69D31A022B01D903239BE193
:101A6C002D4B1B6803F00203002BF0D02A4B1B6894
:101A7C0023F0F8027B685B69DB00274913430B609A
:101A8C0015E0264B00221A60FFF74CFC386108E089
:101A9C00FFF748FC02463B69D31A022B01D90323FA
:101AAC007AE11D4B1B6803F00203002BF0D17B681D
:101ABC001B6803F00803002B3AD07B689B69002B52
:101ACC0019D0174B01221A60FFF72CFC386108E083
:101ADC00FFF728FC02463B69D31A022B01D90323DA
:101AEC005AE10D4B5B6A03F00203002BF0D001208E
:101AFC0000F09AFA1CE00A4B00221A60FFF712FC65
:101B0C0038610FE0FFF70EFC02463B69D31A022B3B
:101B1C0008D9032340E100BF0010024000004242FC
:101B2C00800442429E4B5B6A03F00203002BE9D116
:101B3C007B681B6803F00403002B00F0A6800023D5
:101B4C00FB75974BDB6903F08053002B0DD1944B45
:101B5C00DB69934A43F08053D361914BDB6903F00B
:101B6C008053BB60BB680123FB758E4B1B6803F471
:101B7C008073002B18D18B4B1B688A4A43F48073FB
:101B8C001360FFF7CFFB386108E0FFF7CBFB024691
:101B9C003B69D31A642B01D90323FDE0814B1B68ED
:101BAC0003F48073002BF0D07B68DB68012B06D12B
:101BBC007B4B1B6A7A4A43F0010313622DE07B686E
:101BCC00DB68002B0CD1764B1B6A754A23F00103A2
:101BDC001362734B1B6A724A23F0040313621CE0FA
:101BEC007B68DB68052B0CD16D4B1B6A6C4A43F090
:101BFC00040313626A4B1B6A694A43F001031362C4
:101C0C000BE0674B1B6A664A23F001031362644BBB
:101C1C001B6A634A23F0040313627B68DB68002BA6
:101C2C0015D0FFF77FFB38610AE0FFF77BFB02461C
:101C3C003B69D31A41F28832934201D90323ABE0BA
:101C4C00574B1B6A03F00203002BEED014E0FFF796
:101C5C0069FB38610AE0FFF765FB02463B69D31A62
:101C6C0041F28832934201D9032395E04C4B1B6A15
:101C7C0003F00203002BEED1FB7D012B05D1484B69
:101C8C00DB69474A23F08053D3617B68DB69002B07
:101C9C0000F08180424B5B6803F00C03082B61D091
:101CAC007B68DB69022B46D13F4B00221A60FFF7A1
:101CBC0039FB386108E0FFF735FB02463B69D31A64
:101CCC00022B01D9032367E0354B1B6803F000732B
:101CDC00002BF0D17B681B6AB3F5803F08D1304BE9
:101CEC005B6823F400327B689B682D4913434B607F
:101CFC002B4B5B6823F474127B68196A7B685B6AF4
:101D0C000B43274913434B60274B01221A60FFF703
:101D1C0009FB386108E0FFF705FB02463B69D31A63
:101D2C00022B01D9032337E01D4B1B6803F0007312
:101D3C00002BF0D02FE01C4B00221A60FFF7F2FAB8
:101D4C00386108E0FFF7EEFA02463B69D31A022B22
:101D5C0001D9032320E0124B1B6803F00073002B06
:101D6C00F0D118E07B68DB69012B01D1012313E072
:101D7C000B4B5B68FB60FB6803F480327B681B6A6F
:101D8C009A4206D1FB6803F470127B685B6A9A4234
:101D9C0001D0012300E0002318461837BD4680BD52
:101DAC0000100240007000406000424280B584B0D8
:101DBC0000AF786039607B68002B01D10123D0E043
:101DCC006A4B1B6803F007033A689A4210D9674BB9
:101DDC001B6823F0070265493B6813430B60634B98
:101DEC001B6803F007033A689A4201D00123B8E05C
:101DFC007B681B6803F00203002B20D07B681B68F8
:101E0C0003F00403002B05D0594B5B68584A43F48C
:101E1C00E06353607B681B6803F00803002B05D05C
:101E2C00534B5B68524A43F460535360504B5B68AE
:101E3C0023F0F0027B689B684D4913434B607B6831
:101E4C001B6803F00103002B40D07B685B68012BFF
:101E5C0007D1474B1B6803F40033002B15D101232A
:101E6C007FE07B685B68022B07D1414B1B6803F05A
:101E7C000073002B09D1012373E03D4B1B6803F069
:101E8C000203002B01D101236BE0394B5B6823F07B
:101E9C0003027B685B68364913434B60FFF742FAD9
:101EAC00F8600AE0FFF73EFA0246FB68D31A41F2EB
:101EBC008832934201D9032353E02D4B5B6803F026
:101ECC000C027B685B689B009A42EBD1274B1B682A
:101EDC0003F007033A689A4210D2244B1B6823F094
:101EEC00070222493B6813430B60204B1B6803F02D
:101EFC0007033A689A4201D0012332E07B681B68E1
:101F0C0003F00403002B08D0194B5B6823F4E06248
:101F1C007B68DB68164913434B607B681B6803F0D6
:101F2C000803002B09D0124B5B6823F460527B68CA
:101F3C001B69DB000E4913434B6000F021F802468D
:101F4C000B4B5B681B0903F00F030A49CB5C22FAAD
:101F5C0003F3094A1360094B1B681846FFF7A0F9F5
:101F6C00002318461037BD4680BD00BF002002403C
:101F7C0000100240D8280008180000201C00002087
:101F8C0080B487B000AF0023FB600023BB6000234C
:101F9C007B6100237B6000233B611E4B5B68FB6015
:101FAC00FB6803F00C03042B02D0082B03D027E0B2
:101FBC00194B3B6127E0FB689B0C03F00F03174A9E
:101FCC00D35C7B60FB6803F48033002B10D0114B87
:101FDC005B685B0C03F00103114AD35CBB607B684C
:101FEC000D4A02FB03F2BB68B2FBF3F37B6104E026
:101FFC007B680C4A02FB03F37B617B693B6102E06B
:10200C00054B3B6100BF3B6918461C37BD4680BC85
:10201C00704700BF0010024000127A00E828000848
:10202C00F828000800093D0080B485B000AF786046
:10203C000A4B1B680A4AA2FB03235B0A7A6802FB61
:10204C0003F3FB6000BFFB685A1EFA60002BF9D14A
:10205C0000BF00BF1437BD4680BC7047180000207D
:10206C00D34D621080B582B000AF78607B68002BD6
:10207C0001D1012341E07B6893F83D30DBB2002BAA
:10208C0006D17B68002283F83C207868FFF770F853
:10209C007B68022283F83D207B681A687B680433D6
:1020AC001946104600F056FA7B68012283F8462048
:1020BC007B68012283F83E207B68012283F83F2055
:1020CC007B68012283F840207B68012283F8412041
:1020DC007B68012283F842207B68012283F843202D
:1020EC007B68012283F844207B68012283F8452019
:1020FC007B68012283F83D20002318460837BD4633
:10210C0080BD000080B485B000AF78607B6893F828
:10211C003D30DBB2012B01D0012335E07B6802227C
:10212C0083F83D207B681B68DA687B681B6842F08B
:10213C000102DA607B681B68164A934209D07B68FF
:10214C001B68B3F1804F04D07B681B68124A934222
:10215C0011D17B681B689B6803F00703FB60FB686D
:10216C00062B10D07B681B681A687B681B6842F0D2
:10217C0001021A6007E07B681B681A687B681B68A1
:10218C0042F001021A60002318461437BD4680BC89
:10219C00704700BF002C01400004004080B584B0A3
:1021AC0000AF78607B681B68DB68FB607B681B6832
:1021BC001B69BB60BB6803F00203002B20D0FB68DB
:1021CC0003F00203002B1BD07B681B686FF002022C
:1021DC001A617B6801221A777B681B689B6903F084
:1021EC000303002B03D0786800F098F905E07868B9
:1021FC0000F08BF9786800F09AF97B6800221A7766
:10220C00BB6803F00403002B20D0FB6803F004032D
:10221C00002B1BD07B681B686FF004021A617B6873
:10222C0002221A777B681B689B6903F44073002BAE
:10223C0003D0786800F072F905E0786800F065F971
:10224C00786800F074F97B6800221A77BB6803F099
:10225C000803002B20D0FB6803F00803002B1BD0D5
:10226C007B681B686FF008021A617B6804221A777E
:10227C007B681B68DB6903F00303002B03D07868D1
:10228C0000F04CF905E0786800F03FF9786800F050
:10229C004EF97B6800221A77BB6803F01003002B01
:1022AC0020D0FB6803F01003002B1BD07B681B684D
:1022BC006FF010021A617B6808221A777B681B6822
:1022CC00DB6903F44073002B03D0786800F026F927
:1022DC0005E0786800F019F9786800F028F97B6857
:1022EC0000221A77BB6803F00103002B0CD0FB68AB
:1022FC0003F00103002B07D07B681B686FF0010211
:10230C001A617868FEF7A2FEBB6803F08003002B0D
:10231C000CD0FB6803F08003002B07D07B681B6894
:10232C006FF080021A61786800F06FFABB6803F0F6
:10233C004003002B0CD0FB6803F04003002B07D0AC
:10234C007B681B686FF040021A61786800F0F8F83F
:10235C00BB6803F02003002B0CD0FB6803F02003B8
:10236C00002B07D07B681B686FF020021A6178681D
:10237C0000F042FA00BF1037BD4680BD80B584B076
:10238C0000AF786039600023FB737B6893F83C30B6
:10239C00012B01D10223B4E07B68012283F83C209D
:1023AC007B68022283F83D207B681B689B68BB60BE
:1023BC00BB6823F07703BB60BB6823F47F43BB602F
:1023CC007B681B68BA689A603B681B68B3F5005F52
:1023DC003ED0B3F5005F00F28780B3F5805F00F06C
:1023EC008680B3F5805F7FD8702B1AD0702B7BD88A
:1023FC00602B50D0602B77D8502B3CD0502B73D8FF
:10240C00402B58D0402B6FD8302B64D0302B6BD84E
:10241C00202B60D0202B67D8002B5CD0102B5AD0EF
:10242C0062E07B6818683B6899683B685A683B684F
:10243C00DB6800F06AF97B681B689B68BB60BB6853
:10244C0043F07703BB607B681B68BA689A604FE007
:10245C007B6818683B6899683B685A683B68DB681E
:10246C0000F053F97B681B689A687B681B6842F420
:10247C0080429A603CE07B6818683B6859683B680E
:10248C00DB681A4600F0CAF87B681B6850211846B6
:10249C0000F021F92CE07B6818683B6859683B68B0
:1024AC00DB681A4600F0E8F87B681B686021184668
:1024BC0000F011F91CE07B6818683B6859683B68B0
:1024CC00DB681A4600F0AAF87B681B6840211846A6
:1024DC0000F001F90CE07B681A683B681B68194630
:1024EC00104600F0F8F803E00123FB7300E000BF96
:1024FC007B68012283F83D207B68002283F83C2016
:10250C00FB7B18461037BD4680BD80B483B000AF4E
:10251C00786000BF0C37BD4680BC704780B483B078
:10252C0000AF786000BF0C37BD4680BC704780B4EC
:10253C0083B000AF786000BF0C37BD4680BC7047DD
:10254C0080B483B000AF786000BF0C37BD4680BC50
:10255C007047000080B485B000AF786039607B684C
:10256C001B68FB607B682B4A934207D07B68B3F1F6
:10257C00804F03D07B68284A934208D1FB6823F034
:10258C007003FB603B685B68FA681343FB607B6815
:10259C00204A934207D07B68B3F1804F03D07B680D
:1025AC001D4A934208D1FB6823F44073FB603B68DF
:1025BC00DB68FA681343FB60FB6823F080023B681E
:1025CC005B691343FB607B68FA681A603B689A6826
:1025DC007B68DA623B681A687B689A627B680D4A92
:1025EC00934203D13B681A697B681A637B680122AA
:1025FC005A617B681B6903F00103002B05D07B68D3
:10260C001B6923F001027B681A6100BF1437BD46B9
:10261C0080BC7047002C01400004004080B487B09F
:10262C0000AFF860B9607A60FB681B6A7B61FB687D
:10263C001B6A23F00102FB681A62FB689B693B6111
:10264C003B6923F0F0033B617B681B013A69134340
:10265C003B617B6923F00A037B617A69BB68134396
:10266C007B61FB683A699A61FB687A691A6200BF00
:10267C001C37BD4680BC704780B487B000AFF86093
:10268C00B9607A60FB681B6A7B61FB681B6A23F08C
:10269C001002FB681A62FB689B693B613B6923F47F
:1026AC0070433B617B681B033A6913433B617B6955
:1026BC0023F0A0037B61BB681B017A6913437B6128
:1026CC00FB683A699A61FB687A691A6200BF1C3729
:1026DC00BD4680BC704780B485B000AF786039606F
:1026EC007B689B68FB60FB6823F07003FB603A68B7
:1026FC00FB68134343F00703FB607B68FA689A603E
:10270C0000BF1437BD4680BC704780B487B000AFA3
:10271C00F860B9607A603B60FB689B687B617B69A1
:10272C0023F47F437B613B681A027B681A43BB68C6
:10273C0013437A6913437B61FB687A699A6000BF23
:10274C001C37BD4680BC704780B485B000AF786044
:10275C0039607B6893F83C30012B01D1022341E0B6
:10276C007B68012283F83C207B68022283F83D20A1
:10277C007B681B685B68FB607B681B689B68BB6045
:10278C00FB6823F07003FB603B681B68FA6813431B
:10279C00FB607B681B68FA685A607B681B68144A8C
:1027AC00934209D07B681B68B3F1804F04D07B68DF
:1027BC001B68104A93420CD1BB6823F08003BB60AA
:1027CC003B685B68BA681343BB607B681B68BA687C
:1027DC009A607B68012283F83D207B68002283F895
:1027EC003C20002318461437BD4680BC704700BF00
:1027FC00002C01400004004080B483B000AF78602E
:10280C0000BF0C37BD4680BC704780B483B000AFAE
:10281C00786000BF0C37BD4680BC704770B5002691
:10282C000C4D0D4C641BA410A64209D100F022F8EB
:10283C0000260A4D0A4C641BA410A64205D170BD9B
:10284C0055F8043B98470136EEE755F8043B98479A
:10285C000136F2E7FC280008FC280008FC280008D8
:10286C000029000803460244934200D1704703F844
:10287C00011BF9E7F8B500BFF8BC08BC9E467047D1
:0C288C00F8B500BFF8BC08BC9E467047C1
:10289800000801400008014000080140000801400C
:1028A80000080140000801400008014000080140FC
:1028B8000400080000040008001000200040008008
:1028C800FA000000F4010000EE020000E803000036
:1028D80000000000000000000102030406070809C8
:1028E80002030405060708090A0B0C0D0E0F101049
:0428F80001020000D9
:0428FC00310100089E
:042900000D010008BD
:1029040002000000030000000500000009000000B0
:102914001866667E6666666600127A00100000001D
:0429240001000000AE
:0400000508001235A8
:00000001FF
