:020000040800F2
:1000000000280020610F0008F10E0008F70E00081C
:10001000FD0E0008030F0008090F00080000000093
:100020000000000000000000000000000F0F0008AA
:100030001B0F000800000000270F0008330F000806
:10004000A90F0008A90F0008A90F0008A90F0008B0
:10005000A90F0008A90F0008A90F0008A90F0008A0
:10006000A90F0008A90F0008A90F0008A90F000890
:10007000A90F0008A90F0008A90F0008A90F000880
:10008000A90F0008A90F0008A90F0008A90F000870
:10009000A90F0008A90F0008A90F0008A90F000860
:1000A000A90F0008A90F0008A90F0008A90F000850
:1000B000410F0008A90F000800000000A90F000868
:1000C000A90F00080000000000000000A90F0008B0
:1000D00000000000A90F0008A90F000800000000A0
:1000E000A90F0008A90F0008A90F000800000000D0
:1000F0000000000000000000000000000000000000
:0C01000000000000000000005FF808F1A3
:10010C0010B5054C237833B9044B13B10448AFF345
:10011C0000800123237010BD24000020000000008B
:10012C00AC25000808B5034B1BB103490348AFF3DA
:10013C00008008BD0000000028000020AC2500084D
:10014C0080B500AF01220121114801F013FA012200
:10015C0002210F4801F00EFA012204210C4801F093
:10016C0009FA012208210A4801F004FA012210219F
:10017C00074801F0FFF901222021054801F0FAF9A6
:10018C0001224021024801F0F5F900BF80BD00BFFB
:10019C00000C014080B582B000AF78607B68092B01
:1001AC0000F2808101A252F823F000BFE1010008A7
:1001BC002902000871020008B902000801030008B6
:1001CC004903000891030008D90300082104000822
:1001DC006904000800220121B64801F0CBF9002285
:1001EC000221B44801F0C6F900220421B14801F003
:1001FC00C1F900220821AF4801F0BCF900221021FE
:10020C00AC4801F0B7F900222021AA4801F0B2F95C
:10021C0001224021A74801F0ADF946E1012201215C
:10022C00A44801F0A7F900220221A24801F0A2F98A
:10023C00002204219F4801F09DF9012208219D48CC
:10024C0001F098F9012210219A4801F093F901224A
:10025C002021984801F08EF901224021954801F0A7
:10026C0089F922E100220121924801F083F9002250
:10027C000221904801F07EF9012204218D4801F001
:10028C0079F9002208218B4801F074F90022102121
:10029C00884801F06FF901222021864801F06AF9A3
:1002AC0000224021834801F065F9FEE00022012183
:1002BC00804801F05FF9002202217E4801F05AF9D2
:1002CC00002204217B4801F055F9002208217948CD
:1002DC0001F050F901221021764801F04BF901226E
:1002EC002021744801F046F900224021714801F0A8
:1002FC0041F9DAE0012201216E4801F03BF90022BC
:10030C0002216C4801F036F900220421694801F001
:10031C0031F901220821674801F02CF90122102142
:10032C00644801F027F900222021624801F022F9EB
:10033C00002240215F4801F01DF9B6E000220121A6
:10034C005C4801F017F9012202215A4801F012F918
:10035C0000220421574801F00DF9002208215548CC
:10036C0001F008F901221021524801F003F9002292
:10037C002021504801F0FEF8002240214D4801F0A8
:10038C00F9F892E0002201214A4801F0F3F8012229
:10039C000221484801F0EEF800220421454801F002
:1003AC00E9F800220821434801F0E4F8002210216A
:1003BC00404801F0DFF8002220213E4801F0DAF835
:1003CC00002240213B4801F0D5F86EE000220121CB
:1003DC00384801F0CFF800220221364801F0CAF863
:1003EC0000220421334801F0C5F8012208213148CC
:1003FC0001F0C0F8012210212E4801F0BBF80122B7
:10040C0020212C4801F0B6F801224021294801F0A6
:10041C00B1F84AE000220121264801F0ABF8002295
:10042C000221244801F0A6F800220421214801F001
:10043C00A1F8002208211F4801F09CF8002210218D
:10044C001C4801F097F8002220211A4801F092F87C
:10045C0000224021174801F08DF826E000220121EE
:10046C00144801F087F800220221124801F082F8AA
:10047C00002204210F4801F07DF8002208210D48CC
:10048C0001F078F8012210210A4801F073F80022DB
:10049C002021084801F06EF800224021054801F0A7
:1004AC0069F802E0FFF74CFE00BF00BF0837BD46FD
:1004BC0080BD00BF000C014080B582B000AF7860F9
:1004CC007B68032B66D801A252F823F0E9040008DC
:1004DC001705000845050008730500080022402197
:1004EC003A4801F047F801228021384801F042F8DF
:1004FC0001224FF48071354801F03CF801224FF491
:10050C000071324801F036F85BE0012240212F489F
:10051C0001F030F8002280212C4801F02BF8012248
:10052C004FF48071294801F025F801224FF4007135
:10053C00264801F01FF844E001224021234801F035
:10054C0019F801228021214801F014F800224FF4FF
:10055C0080711E4801F00EF801224FF400711B4807
:10056C0001F008F82DE001224021184801F002F8B2
:10057C0001228021154800F0FDFF01224FF480710B
:10058C00124800F0F7FF00224FF400710F4800F002
:10059C00F1FF16E0012240210C4800F0EBFF012294
:1005AC0080210A4800F0E6FF01224FF480710748D1
:1005BC0000F0E0FF01224FF40071044800F0DAFF74
:1005CC0000BF00BF0837BD4680BD00BF000801401A
:1005DC0080B582B000AF78607B68032B2ED801A267
:1005EC0052F823F00106000813060008250600083F
:1005FC0037060008174B1B681846FFF7CBFD002089
:10060C00FFF75AFF21E0134B5B681846FFF7C2FD5A
:10061C000120FFF751FF18E00E4B9B681846FFF7BF
:10062C00B9FD0220FFF748FF0FE00A4BDB681846C4
:10063C00FFF7B0FD0320FFF73FFF06E0FFF780FD5B
:10064C004FF0FF30FFF738FF00BF00BF0837BD4643
:10065C0080BD00BF0000002080B483B000AF786084
:10066C0039607B68184A82FB03129210DB17D31A8D
:10067C00164A13607968144B83FB01239A10CB172D
:10068C00D21A13469B0013445B00CA1A0F4B5A60D4
:10069C003B680D4A82FB03129210DB17D31A0B4AEC
:1006AC0093603968084B83FB01239A10CB17D21A3D
:1006BC0013469B0013445B00CA1A044BDA6000BF5C
:1006CC000C37BD4680BC704767666666000000202C
:1006DC00B0B590B000AF78600B46FB70644B07F17F
:1006EC001C041D460FCD0FC495E80F0084E80F00C5
:1006FC00604B07F10C040FCB84E80F007B68072BD1
:10070C007AD801A252F823F0350700084F070008E9
:10071C0069070008830700089D070008B707000851
:10072C00D1070008EB07000800224FF480715248F3
:10073C0000F020FF01224FF400414F4800F01AFF57
:10074C005AE001224FF480714B4800F013FF002255
:10075C004FF40071484800F00DFF4DE001224FF4BA
:10076C000071454800F006FF00224FF480614248BA
:10077C0000F000FF40E001224FF480613E4800F0A1
:10078C00F9FE00224FF400613B4800F0F3FE33E029
:10079C0001224FF40061384800F0ECFE00224FF4C7
:1007AC008051354800F0E6FE26E001224FF48051DE
:1007BC00314800F0DFFE00224FF400512E4800F0CB
:1007CC00D9FE19E001224FF400512B4800F0D2FE63
:1007DC0000224FF48041284800F0CCFE0CE00122AE
:1007EC004FF48041244800F0C5FE00224FF4004134
:1007FC00214800F0BFFE00BF0023FB632FE0FA7816
:10080C00FB6B42FA03F303F00103002B12D0FB6BDA
:10081C009B0007F14002134453F8240CFB6B5B0064
:10082C0007F14002134433F8343C0022194600F01F
:10083C00A1FE11E0FB6B9B0007F14002134453F83F
:10084C00240CFB6B5B0007F14002134433F8343C7F
:10085C000122194600F08EFEFB6B0133FB63FB6B30
:10086C00072BCCDD00BF00BF4037BD46B0BD00BF7D
:10087C00C4250008E4250008000C014080B582B0B6
:10088C0000AF78607B68072B4AD801A252F823F09E
:10089C00BD080008CB080008D9080008E7080008C4
:1008AC00F508000803090008110900081F090008D1
:1008BC00364B1B7819460020FFF70AFF61E0334BDB
:1008CC005B7819460120FFF703FF5AE02F4B9B780A
:1008DC0019460220FFF7FCFE53E02C4BDB7819463F
:1008EC000320FFF7F5FE4CE0284B1B79194604203A
:1008FC00FFF7EEFE45E0254B5B7919460520FFF727
:10090C00E7FE3EE0214B9B7919460620FFF7E0FEFF
:10091C0037E01E4BDB7919460720FFF7D9FE30E094
:10092C0001224FF480711A4800F024FE01224FF48A
:10093C000071174800F01EFE01224FF4806114482C
:10094C0000F018FE01224FF40061114800F012FE75
:10095C0001224FF480510E4800F00CFE01224FF49E
:10096C0000510B4800F006FE01224FF4804108486C
:10097C0000F000FE01224FF40041054800F0FAFDA2
:10098C0000BF00BF0837BD4680BD00BF100000206F
:10099C00000C014080B483B000AF00237B6017E0F3
:1009AC00104A7B6813441B785B08DBB25AB20D49C2
:1009BC007B680B441B78DB015BB213435BB2D9B28F
:1009CC00084A7B6813440A461A707B6801337B60C3
:1009DC007B68072BE4DD00BF00BF0C37BD4680BC35
:1009EC00704700BF1000002080B500AFFFF7A8FBD8
:1009FC004FF0FF30FFF760FD01221021064800F098
:100A0C00B9FD01222021044800F0B4FD4FF0FF3065
:100A1C00FFF734FF00BF80BD0008014090B58BB0DC
:100A2C0000AF00F0BDFA00F0C9F800F04FF900F08B
:100A3C0001F95D4801F0FCF917237B623B233B6213
:100A4C003223FB614FF4FA71012000F0A5F94FF449
:100A5C007A71022000F0A0F94FF47A71032000F0B3
:100A6C009BF9FFF7C1FF4FF47A733B614F4B3C4648
:100A7C000FCB84E80F000023BB610FE0BB691A1D8C
:100A8C00BB699B0007F128010B4453F8283C19461D
:100A9C00104600F081F9BB690133BB61BB69032BC4
:100AAC00ECDD1421082000F077F9C821092000F0B2
:100ABC0073F93F4B5B6A012B05D1C821092000F06B
:100ACC006BF9FFF767FF3A4B1B6A012B12D114210C
:100ADC00082000F061F9374B1B68072B02DD354B02
:100AEC0000221A60334B1B685A1C32490A601846A4
:100AFC00FFF7C4FE00237B6112E07B6904332C4AB0
:100B0C0052F82330012B08D17B690433396918461C
:100B1C0000F042F97869FFF75BFD7B6901337B617B
:100B2C007B69032BE9DD224B5B68012B08D14FF469
:100B3C00FA71012000F030F920211F4800F032FD3D
:100B4C001B4B9B68012B08D14FF47A71022000F0EB
:100B5C0023F91021184800F025FD154BDB68012BFB
:100B6C00A7D14FF47A71032000F016F9FB69013319
:100B7C00FB61FB693B2B04DD0023FB613B6A01330A
:100B8C003B623B6A3B2B04DD00233B627B6A0133F7
:100B9C007B627B6A172B01DD00237B62396A786AE2
:100BAC00FFF75AFD85E700BF44000020F42500083C
:100BBC00B4000020400000200008014080B590B037
:100BCC0000AF07F1180328220021184601F0E0FCC1
:100BDC003B1D00221A605A609A60DA601A61022387
:100BEC00BB610123BB621023FB6200237B6307F113
:100BFC001803184600F0F0FC0346002B01D000F05F
:100C0C00C5F80F237B600023BB600023FB6000232F
:100C1C003B6100237B613B1D0021184600F05CFF0B
:100C2C000346002B01D000F0B1F800BF4037BD46A1
:100C3C0080BD000080B586B000AF07F1080300222C
:100C4C001A605A609A60DA603B4600221A605A6059
:100C5C001D4B4FF080421A601B4B41F63F725A609D
:100C6C00194B00229A60184B0922DA60164B0022AD
:100C7C001A61154B00229A61134801F089F803465A
:100C8C00002B01D000F082F84FF48053BB6007F1C9
:100C9C00080319460C4801F007FA0346002B01D053
:100CAC0000F074F800233B6000237B603B46194640
:100CBC00054801F0DFFB0346002B01D000F066F87D
:100CCC0000BF1837BD4680BD4400002080B586B0FB
:100CDC0000AF07F1080300221A605A609A60DA60CC
:100CEC00224B9B69214A43F0040393611F4B9B6980
:100CFC0003F004037B607B681C4B9B691B4A43F02D
:100D0C0008039361194B9B6903F008033B603B6834
:100D1C0000224FF6FC71164800F02CFC00224FF616
:100D2C007F71144800F026FC4FF6FC73BB60012366
:100D3C00FB6000233B6102237B6107F1080319462A
:100D4C000B4800F09DFA4FF67F73BB600123FB60EC
:100D5C0000233B6102237B6107F108031946054818
:100D6C0000F08EFA00BF1837BD4680BD001002405F
:100D7C0000080140000C014080B582B000AF7860E3
:100D8C0000F02AF800BF0837BD4680BD80B400AF24
:100D9C0000BFBD4680BC704780B483B000AF7860A4
:100DAC0039603B68094A82FB03129210DB17D21A96
:100DBC0007497B6841F82320064A7B68002142F8EA
:100DCC00231000BF0C37BD4680BC70476766666653
:100DDC008C000020B400002080B483B000AF00234E
:100DEC007B601CE0124A7B6852F82330002B13DD29
:100DFC000F4A7B6852F823305A1E0D497B6841F824
:100E0C0023200B4A7B6852F82330002B04DC094A60
:100E1C007B68012142F823107B6801337B607B687F
:100E2C00092BDFDD00BF00BF0C37BD4680BC70470F
:100E3C008C000020B400002080B485B000AF154BAE
:100E4C009B69144A43F001039361124B9B6903F0B5
:100E5C000103BB60BB680F4BDB690E4A43F0805348
:100E6C00D3610C4BDB6903F080537B607B680A4BCE
:100E7C005B68FB60FB6823F0E063FB60FB6843F09E
:100E8C008063FB60044AFB68536000BF1437BD46A7
:100E9C0080BC7047001002400000014080B584B057
:100EAC0000AF78607B681B68B3F1804F13D10C4B9B
:100EBC00DB690B4A43F00103D361094BDB6903F097
:100ECC000103FB60FB68002200211C2000F0A1F94B
:100EDC001C2000F0BAF900BF1037BD4680BD00BF22
:100EEC000010024080B400AFFEE780B400AFFEE714
:100EFC0080B400AFFEE780B400AFFEE780B400AF73
:100F0C00FEE780B400AF00BFBD4680BC704780B424
:100F1C0000AF00BFBD4680BC704780B400AF00BFBF
:100F2C00BD4680BC704780B500AF00F07FF800BFB5
:100F3C0080BD000080B500AF024800F0C5FF00BFC7
:100F4C0080BD00BF4400002080B400AF00BFBD4690
:100F5C0080BC7047FFF7F8FF0B480C490C4A002384
:100F6C0002E0D458C4500433C4188C42F9D3094A53
:100F7C00094C002301E013600432A242FBD301F0C0
:100F8C00E3FAFFF74BFD704700000020240000201F
:100F9C003026000824000020E0000020FEE70000BE
:100FAC0080B500AF084B1B68074A43F01003136071
:100FBC00032000F023F90F2000F008F8FFF73CFFA6
:100FCC000023184680BD00BF0020024080B582B0CF
:100FDC0000AF7860124B1A68124B1B7819464FF40D
:100FEC007A73B3FBF1F3B2FBF3F3184600F03BF961
:100FFC000346002B01D001230EE07B680F2B0AD88F
:10100C00002279684FF0FF3000F003F9064A7B6844
:10101C001360002300E0012318460837BD4680BD4D
:10102C0018000020200000201C00002080B400AF1D
:10103C00054B1B781A46054B1B681344034A136077
:10104C0000BFBD4680BC704720000020DC000020A3
:10105C0080B400AF024B1B681846BD4680BC70477D
:10106C00DC00002080B485B000AF78607B6803F0B2
:10107C000703FB600C4BDB68BB60BA684FF6FF03E1
:10108C001340BB60FB681A02BB68134343F0BF6399
:10109C0043F40033BB60044ABB68D36000BF143711
:1010AC00BD4680BC704700BF00ED00E080B400AFCF
:1010BC00044BDB681B0A03F007031846BD4680BCD3
:1010CC00704700BF00ED00E080B483B000AF034672
:1010DC00FB7197F90730002B0BDBFB7903F01F0238
:1010EC00064997F907305B09012000FA02F241F832
:1010FC00232000BF0C37BD4680BC704700E100E0E8
:10110C0080B483B000AF03463960FB7197F90730A8
:10111C00002B0ADB3B68DAB20C4997F90730120155
:10112C00D2B20B4483F800230AE03B68DAB20849D8
:10113C00FB7903F00F03043B1201D2B20B441A7675
:10114C0000BF0C37BD4680BC704700BF00E100E01B
:10115C0000ED00E080B489B000AFF860B9607A604F
:10116C00FB6803F00703FB61FB69C3F10703042B66
:10117C0028BF0423BB61FB690433062B02D9FB692E
:10118C00033B00E000237B614FF0FF32BB6902FAA6
:10119C0003F3DA43BB681A407B699A404FF0FF3186
:1011AC007B6901FA03F3D9437B680B401343184660
:1011BC002437BD4680BC704780B582B000AF7860E4
:1011CC007B68013BB3F1807F01D301230FE00A4A16
:1011DC007B68013B53600F214FF0FF30FFF790FF0E
:1011EC00054B00229A60044B07221A600023184614
:1011FC000837BD4680BD00BF10E000E080B582B06E
:10120C0000AF78607868FFF72DFF00BF0837BD4648
:10121C0080BD80B586B000AF0346B9607A60FB73C1
:10122C0000237B61FFF742FF78617A68B9687869BF
:10123C00FFF790FF024697F90F3011461846FFF75B
:10124C005FFF00BF1837BD4680BD80B582B000AFD0
:10125C000346FB7197F907301846FFF735FF00BFBF
:10126C000837BD4680BD80B582B000AF7860786825
:10127C00FFF7A2FF034618460837BD4680BD0000A5
:10128C0080B48BB000AF7860396000237B620023A0
:10129C003B6248E101227B6A02FA03F3FB613B6883
:1012AC001B68FA691340BB61BA69FB699A4240F04A
:1012BC0037813B685B68A34A93425ED0A14A934254
:1012CC0075D8A14A934258D09F4A93426FD89F4AEF
:1012DC00934252D09D4A934269D89D4A93424CD036
:1012EC009B4A934263D89B4A934246D0994A934275
:1012FC005DD8122B2AD8122B59D801A252F823F000
:10130C00871300086113000873130008B513000855
:10131C00BB130008BB130008BB130008BB13000869
:10132C00BB130008BB130008BB130008BB13000859
:10133C00BB130008BB130008BB130008BB13000849
:10134C00BB130008691300087D130008824A9342FE
:10135C0013D02CE03B68DB683B6229E03B68DB6820
:10136C0004333B6224E03B68DB6808333B621FE0DC
:10137C003B68DB680C333B621AE03B689B68002BD4
:10138C0002D104233B6213E03B689B68012B05D11F
:10139C0008233B627B68FA691A6109E008233B6207
:1013AC007B68FA695A6103E000233B6200E000BFEE
:1013BC00BB69FF2B01D87B6801E07B6804337B6140
:1013CC00BB69FF2B02D87B6A9B0002E07B6A083B5F
:1013DC009B003B617B691A680F213B6901FA03F39F
:1013EC00DB431A40396A3B6901FA03F31A437B6900
:1013FC001A603B685B6803F08053002B00F0908010
:10140C00564B9B69554A43F001039361534B9B69BF
:10141C0003F00103BB60BB68514A7B6A9B08023333
:10142C0052F82330FB607B6A03F003039B000F220E
:10143C0002FA03F3DB43FA681340FB607B68494A0A
:10144C0093420DD07B68484A934207D07B68474A49
:10145C00934201D1022304E0032302E0012300E0C4
:10146C0000237A6A02F0030292009340FA68134355
:10147C00FB603B497B6A9B080233FA6841F82320E6
:10148C003B685B6803F48013002B06D0384B9A68DA
:10149C003749BB6913438B6006E0354B9A68BB69CF
:1014AC00DB43334913408B603B685B6803F40013E8
:1014BC00002B06D02E4BDA682D49BB691343CB6049
:1014CC0006E02B4BDA68BB69DB4329491340CB6040
:1014DC003B685B6803F40033002B06D0244B5A683E
:1014EC002349BB6913434B6006E0214B5A68BB6927
:1014FC00DB431F4913404B603B685B6803F480334C
:10150C00002B06D01A4B1A681949BB6913430B60A0
:10151C0006E0174B1A68BB69DB43154913400B6097
:10152C007B6A01337B623B681A687B6A22FA03F39D
:10153C00002B7FF4AFAE00BF00BF2C37BD4680BC84
:10154C00704700BF00003210000031100000221064
:10155C0000002110000012100000111000100240B9
:10156C000000014000080140000C01400010014047
:10157C000004014080B483B000AF78600B467B80E0
:10158C0013467B707B78002B03D07A887B681A61BA
:10159C0003E07B881A047B681A6100BF0C37BD46D8
:1015AC0080BC704780B485B000AF78600B467B8000
:1015BC007B68DB68FB607A88FB6813401A04FB6865
:1015CC00D9437B880B401A437B681A6100BF1437E0
:1015DC00BD4680BC7047000080B586B000AF786017
:1015EC007B68002B01D101236CE27B681B6803F044
:1015FC000103002B00F08780924B5B6803F00C0317
:10160C00042B0CD08F4B5B6803F00C03082B12D10E
:10161C008C4B5B6803F48033B3F5803F0BD1894B63
:10162C001B6803F40033002B6CD07B685B68002BC9
:10163C0068D1012346E27B685B68B3F5803F06D135
:10164C00804B1B687F4A43F4803313602EE07B6829
:10165C005B68002B0CD17B4B1B687A4A23F48033DC
:10166C001360784B1B68774A23F4802313601DE0CA
:10167C007B685B68B3F5A02F0CD1724B1B68714A69
:10168C0043F4802313606F4B1B686E4A43F4803322
:10169C0013600BE06B4B1B686A4A23F480331360B6
:1016AC00684B1B68674A23F4802313607B685B6874
:1016BC00002B13D0FFF7CCFC386108E0FFF7C8FC17
:1016CC0002463B69D31A642B01D90323FAE15D4B23
:1016DC001B6803F40033002BF0D014E0FFF7B8FCC8
:1016EC00386108E0FFF7B4FC02463B69D31A642B5F
:1016FC0001D90323E6E1534B1B6803F40033002BA1
:10170C00F0D100E000BF7B681B6803F00203002BE4
:10171C0063D04C4B5B6803F00C03002B0BD0494B94
:10172C005B6803F00C03082B1CD1464B5B6803F47D
:10173C008033002B16D1434B1B6803F00203002BA4
:10174C0005D07B681B69012B01D00123BAE13D4B0D
:10175C001B6823F0F8027B685B69DB003949134393
:10176C000B603AE07B681B69002B20D0364B0122C2
:10177C001A60FFF76DFC386108E0FFF769FC024660
:10178C003B69D31A022B01D903239BE12D4B1B6818
:10179C0003F00203002BF0D02A4B1B6823F0F80255
:1017AC007B685B69DB00274913430B6015E0264B14
:1017BC0000221A60FFF74CFC386108E0FFF748FC88
:1017CC0002463B69D31A022B01D903237AE11D4B44
:1017DC001B6803F00203002BF0D17B681B6803F03D
:1017EC000803002B3AD07B689B69002B19D0174B50
:1017FC0001221A60FFF72CFC386108E0FFF728FC87
:10180C0002463B69D31A022B01D903235AE10D4B33
:10181C005B6A03F00203002BF0D0012000F09AFA6F
:10182C001CE00A4B00221A60FFF712FC38610FE033
:10183C00FFF70EFC02463B69D31A022B08D903238F
:10184C0040E100BF001002400000424280044242CE
:10185C009E4B5B6A03F00203002BE9D17B681B688B
:10186C0003F00403002B00F0A6800023FB75974BBC
:10187C00DB6903F08053002B0DD1944BDB69934A49
:10188C0043F08053D361914BDB6903F08053BB6011
:10189C00BB680123FB758E4B1B6803F48073002B14
:1018AC0018D18B4B1B688A4A43F480731360FFF783
:1018BC00CFFB386108E0FFF7CBFB02463B69D31A3C
:1018CC00642B01D90323FDE0814B1B6803F4807367
:1018DC00002BF0D07B68DB68012B06D17B4B1B6A9D
:1018EC007A4A43F0010313622DE07B68DB68002B1E
:1018FC000CD1764B1B6A754A23F001031362734BB0
:10190C001B6A724A23F0040313621CE07B68DB68D9
:10191C00052B0CD16D4B1B6A6C4A43F0040313620C
:10192C006A4B1B6A694A43F0010313620BE0674B75
:10193C001B6A664A23F001031362644B1B6A634AF9
:10194C0023F0040313627B68DB68002B15D0FFF7D0
:10195C007FFB38610AE0FFF77BFB02463B69D31A39
:10196C0041F28832934201D90323ABE0574B1B6AF7
:10197C0003F00203002BEED014E0FFF769FB386193
:10198C000AE0FFF765FB02463B69D31A41F2883245
:10199C00934201D9032395E04C4B1B6A03F00203DD
:1019AC00002BEED1FB7D012B05D1484BDB69474A5F
:1019BC0023F08053D3617B68DB69002B00F08180BE
:1019CC00424B5B6803F00C03082B61D07B68DB692E
:1019DC00022B46D13F4B00221A60FFF739FB3861CE
:1019EC0008E0FFF735FB02463B69D31A022B01D9FD
:1019FC00032367E0354B1B6803F00073002BF0D119
:101A0C007B681B6AB3F5803F08D1304B5B6823F4CD
:101A1C0000327B689B682D4913434B602B4B5B68F2
:101A2C0023F474127B68196A7B685B6A0B43274941
:101A3C0013434B60274B01221A60FFF709FB3861F7
:101A4C0008E0FFF705FB02463B69D31A022B01D9CC
:101A5C00032337E01D4B1B6803F00073002BF0D001
:101A6C002FE01C4B00221A60FFF7F2FA386108E0F5
:101A7C00FFF7EEFA02463B69D31A022B01D9032376
:101A8C0020E0124B1B6803F00073002BF0D118E020
:101A9C007B68DB69012B01D1012313E00B4B5B68E5
:101AAC00FB60FB6803F480327B681B6A9A4206D1A8
:101ABC00FB6803F470127B685B6A9A4201D00123C5
:101ACC0000E0002318461837BD4680BD00100240C8
:101ADC00007000406000424280B584B000AF786076
:101AEC0039607B68002B01D10123D0E06A4B1B6865
:101AFC0003F007033A689A4210D9674B1B6823F02E
:101B0C00070265493B6813430B60634B1B6803F08A
:101B1C0007033A689A4201D00123B8E07B681B683E
:101B2C0003F00203002B20D07B681B6803F0040336
:101B3C00002B05D0594B5B68584A43F4E063536063
:101B4C007B681B6803F00803002B05D0534B5B68C4
:101B5C00524A43F460535360504B5B6823F0F002DD
:101B6C007B689B684D4913434B607B681B6803F093
:101B7C000103002B40D07B685B68012B07D1474BDE
:101B8C001B6803F40033002B15D101237FE07B6825
:101B9C005B68022B07D1414B1B6803F00073002BD1
:101BAC0009D1012373E03D4B1B6803F00203002BAA
:101BBC0001D101236BE0394B5B6823F003027B6896
:101BCC005B68364913434B60FFF742FAF8600AE052
:101BDC00FFF73EFA0246FB68D31A41F28832934271
:101BEC0001D9032353E02D4B5B6803F00C027B6897
:101BFC005B689B009A42EBD1274B1B6803F00703F1
:101C0C003A689A4210D2244B1B6823F007022249EF
:101C1C003B6813430B60204B1B6803F007033A68C7
:101C2C009A4201D0012332E07B681B6803F0040365
:101C3C00002B08D0194B5B6823F4E0627B68DB68EF
:101C4C00164913434B607B681B6803F00803002B99
:101C5C0009D0124B5B6823F460527B681B69DB0074
:101C6C000E4913434B6000F021F802460B4B5B68A6
:101C7C001B0903F00F030A49CB5C22FA03F3094A50
:101C8C001360094B1B681846FFF7A0F90023184690
:101C9C001037BD4680BD00BF00200240001002403E
:101CAC0004260008180000201C00002080B487B017
:101CBC0000AF0023FB600023BB6000237B6100238B
:101CCC007B6000233B611E4B5B68FB60FB6803F091
:101CDC000C03042B02D0082B03D027E0194B3B61DB
:101CEC0027E0FB689B0C03F00F03174AD35C7B6067
:101CFC00FB6803F48033002B10D0114B5B685B0C3A
:101D0C0003F00103114AD35CBB607B680D4A02FBF4
:101D1C0003F2BB68B2FBF3F37B6104E07B680C4A13
:101D2C0002FB03F37B617B693B6102E0054B3B618A
:101D3C0000BF3B6918461C37BD4680BC704700BFCE
:101D4C000010024000127A00142600082426000815
:101D5C0000093D0080B485B000AF78600A4B1B6869
:101D6C000A4AA2FB03235B0A7A6802FB03F3FB60BB
:101D7C0000BFFB685A1EFA60002BF9D100BF00BFF0
:101D8C001437BD4680BC704718000020D34D62103C
:101D9C0080B582B000AF78607B68002B01D1012345
:101DAC0041E07B6893F83D30DBB2002B06D17B68B9
:101DBC00002283F83C207868FFF770F87B680222D9
:101DCC0083F83D207B681A687B68043319461046FB
:101DDC0000F056FA7B68012283F846207B680122CA
:101DEC0083F83E207B68012283F83F207B68012228
:101DFC0083F840207B68012283F841207B68012214
:101E0C0083F842207B68012283F843207B680122FF
:101E1C0083F844207B68012283F845207B680122EB
:101E2C0083F83D20002318460837BD4680BD0000CE
:101E3C0080B485B000AF78607B6893F83D30DBB23E
:101E4C00012B01D0012335E07B68022283F83D2071
:101E5C007B681B68DA687B681B6842F00102DA60F9
:101E6C007B681B68164A934209D07B681B68B3F1E8
:101E7C00804F04D07B681B68124A934211D17B6857
:101E8C001B689B6803F00703FB60FB68062B10D0F4
:101E9C007B681B681A687B681B6842F001021A6039
:101EAC0007E07B681B681A687B681B6842F00102BC
:101EBC001A60002318461437BD4680BC704700BF1B
:101ECC00002C01400004004080B584B000AF786065
:101EDC007B681B68DB68FB607B681B681B69BB60ED
:101EEC00BB6803F00203002B20D0FB6803F0020355
:101EFC00002B1BD07B681B686FF002021A617B6899
:101F0C0001221A777B681B689B6903F00303002B83
:101F1C0003D0786800F098F905E0786800F08BF948
:101F2C00786800F09AF97B6800221A77BB6803F096
:101F3C000403002B20D0FB6803F00403002B1BD000
:101F4C007B681B686FF004021A617B6802221A77A7
:101F5C007B681B689B6903F44073002B03D0786883
:101F6C0000F072F905E0786800F065F9786800F027
:101F7C0074F97B6800221A77BB6803F00803002B06
:101F8C0020D0FB6803F00803002B1BD07B681B6878
:101F9C006FF008021A617B6804221A777B681B6851
:101FAC00DB6903F00303002B03D0786800F04CF9D5
:101FBC0005E0786800F03FF9786800F04EF97B682E
:101FCC0000221A77BB6803F01003002B20D0FB68AB
:101FDC0003F01003002B1BD07B681B686FF0100202
:101FEC001A617B6808221A777B681B68DB6903F42B
:101FFC004073002B03D0786800F026F905E0786870
:10200C0000F019F9786800F028F97B6800221A773B
:10201C00BB6803F00103002B0CD0FB6803F0010339
:10202C00002B07D07B681B686FF001021A6178687F
:10203C00FEF7A2FEBB6803F08003002B0CD0FB68FC
:10204C0003F08003002B07D07B681B686FF08002C5
:10205C001A61786800F06FFABB6803F04003002B3C
:10206C000CD0FB6803F04003002B07D07B681B6887
:10207C006FF040021A61786800F0F8F8BB6803F062
:10208C002003002B0CD0FB6803F02003002B07D09F
:10209C007B681B686FF020021A61786800F042FAC6
:1020AC0000BF1037BD4680BD80B584B000AF7860EE
:1020BC0039600023FB737B6893F83C30012B01D112
:1020CC000223B4E07B68012283F83C207B68022267
:1020DC0083F83D207B681B689B68BB60BB6823F062
:1020EC007703BB60BB6823F47F43BB607B681B68D2
:1020FC00BA689A603B681B68B3F5005F3ED0B3F5D5
:10210C00005F00F28780B3F5805F00F08680B3F546
:10211C00805F7FD8702B1AD0702B7BD8602B50D05F
:10212C00602B77D8502B3CD0502B73D8402B58D0E9
:10213C00402B6FD8302B64D0302B6BD8202B60D039
:10214C00202B67D8002B5CD0102B5AD062E07B6818
:10215C0018683B6899683B685A683B68DB6800F014
:10216C006AF97B681B689B68BB60BB6843F07703AC
:10217C00BB607B681B68BA689A604FE07B68186824
:10218C003B6899683B685A683B68DB6800F053F918
:10219C007B681B689A687B681B6842F480429A6073
:1021AC003CE07B6818683B6859683B68DB681A46FA
:1021BC0000F0CAF87B681B685021184600F021F922
:1021CC002CE07B6818683B6859683B68DB681A46EA
:1021DC0000F0E8F87B681B686021184600F011F9E4
:1021EC001CE07B6818683B6859683B68DB681A46DA
:1021FC0000F0AAF87B681B684021184600F001F932
:10220C000CE07B681A683B681B681946104600F0A6
:10221C00F8F803E00123FB7300E000BF7B680122A8
:10222C0083F83D207B68002283F83C20FB7B18461A
:10223C001037BD4680BD80B483B000AF786000BF5E
:10224C000C37BD4680BC704780B483B000AF78605B
:10225C0000BF0C37BD4680BC704780B483B000AF64
:10226C00786000BF0C37BD4680BC704780B483B02B
:10227C0000AF786000BF0C37BD4680BC70470000D3
:10228C0080B485B000AF786039607B681B68FB60F8
:10229C007B682B4A934207D07B68B3F1804F03D005
:1022AC007B68284A934208D1FB6823F07003FB60DB
:1022BC003B685B68FA681343FB607B68204A934277
:1022CC0007D07B68B3F1804F03D07B681D4A9342E3
:1022DC0008D1FB6823F44073FB603B68DB68FA6849
:1022EC001343FB60FB6823F080023B685B6913437C
:1022FC00FB607B68FA681A603B689A687B68DA62F4
:10230C003B681A687B689A627B680D4A934203D1DA
:10231C003B681A697B681A637B6801225A617B6887
:10232C001B6903F00103002B05D07B681B6923F0AC
:10233C0001027B681A6100BF1437BD4680BC704730
:10234C00002C01400004004080B487B000AFF8605E
:10235C00B9607A60FB681B6A7B61FB681B6A23F0BF
:10236C000102FB681A62FB689B693B613B6923F0C5
:10237C00F0033B617B681B013A6913433B617B694A
:10238C0023F00A037B617A69BB6813437B61FB68AA
:10239C003A699A61FB687A691A6200BF1C37BD46BC
:1023AC0080BC704780B487B000AFF860B9607A60C9
:1023BC00FB681B6A7B61FB681B6A23F01002FB68DD
:1023CC001A62FB689B693B613B6923F470433B6178
:1023DC007B681B033A6913433B617B6923F0A003C1
:1023EC007B61BB681B017A6913437B61FB683A69AB
:1023FC009A61FB687A691A6200BF1C37BD4680BCC3
:10240C00704780B485B000AF786039607B689B689A
:10241C00FB60FB6823F07003FB603A68FB681343B6
:10242C0043F00703FB607B68FA689A6000BF1437BF
:10243C00BD4680BC704780B487B000AFF860B9600F
:10244C007A603B60FB689B687B617B6923F47F430C
:10245C007B613B681A027B681A43BB6813437A6939
:10246C0013437B61FB687A699A6000BF1C37BD46D9
:10247C0080BC704780B485B000AF786039607B68F1
:10248C0093F83C30012B01D1022341E07B680122FF
:10249C0083F83C207B68022283F83D207B681B6814
:1024AC005B68FB607B681B689B68BB60FB6823F008
:1024BC007003FB603B681B68FA681343FB607B6826
:1024CC001B68FA685A607B681B68144A934209D0EF
:1024DC007B681B68B3F1804F04D07B681B68104A83
:1024EC0093420CD1BB6823F08003BB603B685B68F4
:1024FC00BA681343BB607B681B68BA689A607B68D8
:10250C00012283F83D207B68002283F83C200023C5
:10251C0018461437BD4680BC704700BF002C0140E4
:10252C000004004080B483B000AF786000BF0C376B
:10253C00BD4680BC704780B483B000AF786000BFEC
:10254C000C37BD4680BC704770B500260C4D0D4C49
:10255C00641BA410A64209D100F022F800260A4DF3
:10256C000A4C641BA410A64205D170BD55F8043B5F
:10257C0098470136EEE755F8043B98470136F2E7E9
:10258C002826000828260008282600082C260008E3
:10259C0003460244934200D1704703F8011BF9E74C
:1025AC00F8B500BFF8BC08BC9E467047F8B500BF34
:0825BC00F8BC08BC9E46704704
:1025C40000080140000801400008014000080140E3
:1025D40000080140000801400008014000080140D3
:1025E40004000800000400080010002000400080DF
:1025F400FA000000F4010000EE020000E80300000D
:10260400000000000000000001020304060708099E
:1026140002030405060708090A0B0C0D0E0F10101F
:0426240001020000AF
:042628003101000874
:04262C000D01000894
:102630000200000003000000050000000900000087
:10264000183C7E66667E666600127A001000000006
:042650000100000085
:0400000508000F617F
:00000001FF
